:03000000020800F3
:0C080000787FE4F6D8FD758116020847E9
:0C09C3000A083F065B4F666D7D077F6FE2
:0309D0001209A366
:0909D300D280D281D282D28322AB
:1009A300E4FDFCC3ED9FEC9E5015E4FBFA0BBB008A
:0F09B300010ABA04F8BBFBF50DBD00010C80E48E
:0109C2002212
:04088C00AB07AA0606
:100890007C037DE81209167C007D0A1209168D146E
:1008A0007C007D64AF03AE021209167C007D0A1243
:1008B00009168D157C007D0AAF03AE021209167C65
:1008C000007D0A1209168D16AE02AF037C007D0A68
:1008D000120916A9051209D374082514F8E6F5A023
:1008E000C2807F017E001209D074082515F8E6F554
:1008F000A0C2811209D074082516F8E6F5A0C282BC
:100900001209A31209D3AF0174082FF8E6F5A0C2AB
:06091000837F010209A330
:10096B00900000E4F512F513AF82AE8312088C05EC
:10097B0013E51370020512C39401E512940040E8CD
:10098B00E4F512F513A3D3E582940FE58394274086
:08099B00D7E4F583F58280D05A
:10080C0002096BE493A3F8E493A34003F68001F28E
:10081C0008DFF48029E493A3F85407240CC8C333ED
:10082C00C4540F4420C8834004F456800146F6DFBC
:10083C00E4800B01020408102040809009C3E47E80
:10084C00019360BCA3FF543F30E509541FFEE493B1
:10085C00A360010ECF54C025E060A840B8E493A378
:10086C00FAE493A3F8E493A3C8C582C8CAC583CAA3
:10087C00F0A3C8C582C8CAC583CADFE9DEE780BE5B
:0109CF000027
:10091600BC000BBE0029EF8DF084FFADF022E4CCC5
:10092600F875F008EF2FFFEE33FEEC33FCEE9DEC8E
:10093600984005FCEE9DFE0FD5F0E9E4CEFD22EDD4
:10094600F8F5F0EE8420D21CFEADF075F008EF2F1E
:10095600FFED33FD4007985006D5F0F222C398FD0F
:050966000FD5F0EA22AC
:00000001FF
